:100000000C942A000C9435010C945C010C94610151
:100010000C9447000C9447000C9453040C94470034
:100020000C9447000C942E040C94E0030C940704E9
:100030000C9447000C9447000C9447000C94470024
:100040000C9447000C9447000C9447000C94470014
:100050000C94470011241FBECFE5D8E0DEBFCDBF12
:1000600010E0A0E6B0E0EEEBFBE002C005900D92E0
:10007000A038B107D9F720E0A0E8B0E001C01D9298
:10008000AE39B207E1F70E9429030C94DD050C9408
:100090000000843008F062C0683008F05FC0413072
:1000A00051F58230B1F08330E9F0813049F02AB364
:1000B00081E090E001C0880F6A95EAF7822B2CC09E
:1000C00027B381E090E001C0880F6A95EAF7822BA0
:1000D0002EC024B381E090E001C0880F6A95EAF752
:1000E000822B30C021B381E090E001C0880F6A9577
:1000F000EAF7822B32C0411131C08230D1F0833017
:1001000019F1813059F02AB381E090E001C0880FE5
:100110006A95EAF7809582238ABB089527B381E028
:1001200090E001C0880F6A95EAF78095822387BB2B
:10013000089524B381E090E001C0880F6A95EAF742
:100140008095822384BB089521B381E090E001C0B3
:10015000880F6A95EAF78095822381BB08958430E1
:1001600008F062C0683008F05FC0413051F582305D
:10017000B1F08330E9F0813049F02BB381E090E0B9
:1001800001C0880F6A95EAF7822B2CC028B381E062
:1001900090E001C0880F6A95EAF7822B2EC025B344
:1001A00081E090E001C0880F6A95EAF7822B30C0A9
:1001B00022B381E090E001C0880F6A95EAF7822BB4
:1001C00032C0411131C08230D1F0833019F1813019
:1001D00059F02BB381E090E001C0880F6A95EAF7EF
:1001E000809582238BBB089528B381E090E001C005
:1001F000880F6A95EAF78095822388BB089525B316
:1002000081E090E001C0880F6A95EAF7809582232B
:1002100085BB089522B381E090E001C0880F6A9504
:10022000EAF78095822382BB0895843068F4823097
:1002300041F0833041F0813011F06ABB089567BB13
:10024000089564BB089561BB0895843068F48230DA
:1002500041F0833041F0813011F06BBB089568BBF1
:10026000089565BB089562BB08951F920F920FB663
:100270000F9211242F933F934F935F936F937F932C
:100280008F939F93AF93BF93EF93FF93E09194006D
:10029000F09195000995FF91EF91BF91AF919F91DA
:1002A0008F917F916F915F914F913F912F910F901F
:1002B0000FBE0F901F901895E0919600F091970057
:1002C0000994E0919800F09199000994CF93C82F78
:1002D00040E061E081E00E94AF0040E062E081E048
:1002E0000E94AF006C2F607F80E00E94250141E0FA
:1002F00063E081E00E94AF0089EF90E00197F1F7A1
:1003000000C0000040E063E081E00E94AF0089EFA0
:1003100090E00197F1F700C000006C2F6295607FBC
:1003200080E00E94250141E063E081E00E94AF008F
:1003300089EF90E00197F1F700C0000040E063E032
:1003400081E00E94AF0089EF90E00197F1F700C0D3
:100350000000CF91089541E061E081E00E944900F2
:1003600041E062E081E00E94490041E063E081E019
:100370000E94490083ED90E30197F1F700C000006F
:1003800060EF80E00E94150182E00E94660188E231
:100390000E94660189EF90E00197F1F700C000002C
:1003A0008CE00E94660189EF90E00197F1F700C0B0
:1003B000000081E00E94660189EF90E00197F1F76B
:1003C00000C0000086E00E94660189EF90E001977E
:1003D000F1F700C000000895CF93C82F41E061E01D
:1003E00081E00E94AF0040E062E081E00E94AF0047
:1003F0006C2F607F80E00E94250141E063E081E096
:100400000E94AF0089EF90E00197F1F700C0000073
:1004100040E063E081E00E94AF0089EF90E0019747
:10042000F1F700C000006C2F6295607F80E00E94B1
:10043000250141E063E081E00E94AF0089EF90E098
:100440000197F1F700C0000040E063E081E00E9406
:10045000AF0089EF90E00197F1F700C00000CF9165
:1004600008950F931F93CF938C01C0E0F801EC0F18
:10047000F11D8081882321F00E94EC01CF5FF6CF2F
:10048000CF911F910F910895813011F48FE703C030
:10049000823021F48FEB860F0C94660108952F9221
:1004A0003F924F925F926F927F928F929F92AF9204
:1004B000BF92CF92DF92EF92FF920F931F93CF9351
:1004C000DF93CDB7DEB728970FB6F894DEBF0FBE27
:1004D000CDBF29833A834B835C836D837E831C016C
:1004E000A0E00E94C205D9F480E328960FB6F894E4
:1004F000DEBF0FBECDBFDF91CF911F910F91FF9057
:10050000EF90DF90CF90BF90AF909F908F907F90B3
:100510006F905F904F903F902F900C94EC01662469
:100520006394712C812C912C18861F82412C512CA4
:100530009AE0A92EB12CC12CD12CE12CF12C00E099
:1005400010E09301A40168857F81C2010E9401052A
:1005500028873F83942E852E762E672E582E492E7F
:1005600029813A814B815C816D817E81C1010E942C
:100570005A05A884BF80C92CD82CE72CF62C052D51
:10058000142D0E94B90539014A0168877F832C0127
:100590002AE0A22EB12CC12CD12CE12CF12C00E0B0
:1005A00010E029813A814B815C816D817E81C1019E
:1005B0000E945C0529833A834B835C836D837E8331
:1005C0001C01A0E00E94C20509F0B2CF9301A40172
:1005D00068857F81C201A1E00E94C20509F18AE01D
:1005E000A82EB12CC12CD12CE12CF12C00E010E074
:1005F0009301A40168857F81C2010E945A0580E3AE
:10060000820F0E94EC019301A40168857F81C201E1
:100610000E945C0539014A0168877F832C01D6CF8F
:1006200028960FB6F894DEBF0FBECDBFDF91CF91F5
:100630001F910F91FF90EF90DF90CF90BF90AF9000
:100640009F908F907F906F905F904F903F902F90F2
:10065000089541E062E082E00E94490041E061E0EB
:1006600083E00E94490040E060E083E00E9449008E
:1006700041E063E080E00E9449000E94F4040E948F
:10068000B4030E94AB012FEF83ED90E32150804033
:100690009040E1F700C000000E94FD04C82F0E94B6
:1006A000CE03C133B9F541E062E082E00E94AF00C1
:1006B00041E063E080E00E94AF002FEF89E698E11F
:1006C000215080409040E1F700C0000040E063E02E
:1006D00080E00E94AF0061E070E081E090E00E9465
:1006E000440280E690E00E94310261E070E082E026
:1006F00090E00E9444028CE690E00E94310266E0A5
:1007000070E082E090E00E94440281E390E00E9469
:100710004F02B9CFC03309F0B6CF40E062E082E0CB
:100720000E94AF0041E063E080E00E94AF002FEF45
:1007300089E698E1215080409040E1F700C0000038
:1007400040E063E080E00E94AF0081E090E00E9422
:10075000660161E070E081E090E00E94440281E780
:1007600090E00E9431028FCF41E065E081E00E947D
:10077000490040E066E081E00E94490041E067E016
:1007800081E00E94490041E064E081E00E9449006C
:1007900081E78DB91EB881E08FB90895CF93C82F36
:1007A00040E064E081E00E94AF00CFB9779BFECFCC
:1007B00041E064E081E00E94AF008FB1CF910895E5
:1007C0001F920F920FB60F9211242F933F934F93C6
:1007D0005F936F937F938F939F93AF93BF93EF93A9
:1007E000FF93E0919C00F0919D000995FF91EF919E
:1007F000BF91AF919F918F917F916F915F914F9139
:100800003F912F910F900FBE0F901F9018951F9240
:100810000F920FB60F9211242F933F934F935F9334
:100820006F937F938F939F93AF93BF93EF93FF93B8
:10083000E0919A00F0919B000995FF91EF91BF9193
:10084000AF919F918F917F916F915F914F913F9168
:100850002F910F900FBE0F901F9018951F920F921F
:100860000FB60F9211248F939F93AF93BF938091F4
:10087000900090919100A0919200B0919300019608
:10088000A11DB11D8093900090939100A0939200C0
:10089000B0939300BF91AF919F918F910F900FBE36
:1008A0000F901F9018951F920F920FB60F92112460
:1008B0002F933F938F939F93AF93BF93809180002B
:1008C00090918100A0918200B0918300892B8A2BA6
:1008D0008B2BC1F486B597B5A0E0B0E080938C0077
:1008E00090938D00A0938E00B0938F008EB58F7B78
:1008F0008EBD109290001092910010929200109272
:10090000930054C08091800090918100A09182005A
:10091000B09183000197A105B105E9F426B537B57B
:100920008091900090919100A0919200B0919300DD
:10093000DC0199278827820F931FA11DB11D809389
:10094000880090938900A0938A00B0938B008EB5A5
:1009500080648EBD2BC08091800090918100A09119
:100960008200B09183000297A105B105F9F426B584
:1009700037B58091900090919100A0919200B09134
:100980009300DC0199278827820F931FA11DB11DB9
:100990008093840090938500A0938600B093870095
:1009A00089B78F7D89BF89B78B7F89BF8091800090
:1009B00090918100A0918200B09183000196A11DC9
:1009C000B11D8093800090938100A0938200B0932A
:1009D0008300BF91AF919F918F913F912F910F9085
:1009E0000FBE0F901F9018951BB888E18AB986E852
:1009F00080BD87E689B910BC08955F9BFECF8CB19E
:100A00000895DF93CF931F930F939A9DF02D219F0D
:100A1000F00D8B9DF00D8A9DE02DF10D039FF00DE3
:100A2000029FE00DF11D4E9DE00DF11D5E9DF00D4C
:100A30004F9DF00D7F936F93BF92AF925F934F9353
:100A4000D5010E94CE058B01AC01D7010E94CE05D5
:100A5000EB01E80FF91FD6010E9451052F913F913C
:100A6000D6010E94CE05C60FD71FE81FF91FAF9110
:100A7000BF910E9451052F913F910E94CE05C60F54
:100A8000D71FE81FF91FD6010E94CE05E60FF71FFA
:100A90009801BE01CF0111240F911F91CF91DF91D9
:100AA00008950E94CE05460F571FC81FD91F08F48E
:100AB00031960895689401C0E8948F929F92CF93E5
:100AC000DF930E946805DF91CF919F908F900895EA
:100AD00088249924F401E401B0E49F93AA279A158D
:100AE0008B049C04ED05FE05CF05D007A10798F403
:100AF000AD2FDC2FCF2FFE2FE92D982C892E982F8C
:100B0000872F762F652F542F432F322F2227B8504F
:100B100031F7BF9127C01B2EBF91BB27220F331F78
:100B2000441F551F661F771F881F991F881C991C1B
:100B3000EE1FFF1FCC1FDD1FAA1FBB1F8A149B04C3
:100B4000EC05FD05CE05DF05A007B10748F08A18C2
:100B50009B08EC09FD09CE09DF09A00BB10B216050
:100B60001A94E1F62EF49401AF01BE01CD01000C00
:100B700008952A0D3B1D4C1D5D1D6E1D7F1D801FA0
:100B8000911F08950024A7FD00942A173005400501
:100B9000500560057005800590050895A29FB0017D
:100BA000B39FC001A39F700D811D1124911DB29FA1
:0E0BB000700D811D1124911D0895F894FFCF42
:100BBE00436F6E74726F6C6C696E6700524F4F4D5F
:100BCE00004F5554204F4620434F4E54524F4C0029
:00000001FF
