:100000000C942A000C9435010C945C010C94620150
:100010000C9447000C9447000C9411020C94470078
:100020000C9447000C94EC010C949E010C94C501B7
:100030000C9447000C9447000C9447000C94470024
:100040000C9447000C9447000C9447000C94470014
:100050000C94470011241FBECFE5D8E0DEBFCDBF12
:1000600010E0A0E6B0E0E8E6F5E002C005900D92F1
:10007000A036B107D9F720E0A0E6B0E001C01D929C
:10008000AE37B207E1F70E9468010C94B2020C94FB
:100090000000843008F072C0683008F06FC0413052
:1000A000A1F5813089F028F08230C9F0833011F158
:1000B00008952AB381E090E002C0880F991F6A95E5
:1000C000E2F7822B8ABB089527B381E090E002C05B
:1000D000880F991F6A95E2F7822B87BB089524B396
:1000E00081E090E002C0880F991F6A95E2F7822BA9
:1000F00084BB089521B381E090E002C0880F991F6E
:100100006A95E2F7822B81BB0895411137C0813097
:1001100091F028F08230D9F0833029F108952AB384
:1001200081E090E002C0880F991F6A95E2F7809500
:1001300082238ABB089527B381E090E002C0880F34
:10014000991F6A95E2F78095822387BB089524B3AF
:1001500081E090E002C0880F991F6A95E2F78095D0
:10016000822384BB089521B381E090E002C0880F10
:10017000991F6A95E2F78095822381BB08958430A8
:1001800008F072C0683008F06FC04130A1F58130CE
:1001900089F028F08230C9F0833011F108952BB333
:1001A00081E090E002C0880F991F6A95E2F7822BE8
:1001B0008BBB089528B381E090E002C0880F991F9F
:1001C0006A95E2F7822B88BB089525B381E090E021
:1001D00002C0880F991F6A95E2F7822B85BB0895AC
:1001E00022B381E090E002C0880F991F6A95E2F780
:1001F000822B82BB0895411137C0813091F028F0E5
:100200008230D9F0833029F108952BB381E090E05A
:1002100002C0880F991F6A95E2F7809582238BBBF5
:10022000089528B381E090E002C0880F991F6A9575
:10023000E2F78095822388BB089525B381E090E0A2
:1002400002C0880F991F6A95E2F78095822385BBCB
:10025000089522B381E090E002C0880F991F6A954B
:10026000E2F78095822382BB08951F920F920FB60A
:100270000F9211242F933F934F935F936F937F932C
:100280008F939F93AF93BF93EF93FF93E09174008D
:10029000F09175000995FF91EF91BF91AF919F91FA
:1002A0008F917F916F915F914F913F912F910F901F
:1002B0000FBE0F901F901895E0917600F091770097
:1002C00009950895E0917800F091790009950895D5
:1002D00041E062E082E00E9449000E94820181E3E5
:1002E0000E949901813331F441E062E082E00E9492
:1002F000BF00F5CF803399F740E062E082E00E94D2
:10030000BF00EDCF40E065E081E00E94490041E0A0
:1003100066E081E00E94490040E067E081E00E94E1
:10032000490040E064E081E00E94490080E68DB928
:1003300008958FB9779BFECF8FB108951F920F92CA
:100340000FB60F9211242F933F934F935F936F93A8
:100350007F938F939F93AF93BF93EF93FF93E0911E
:100360007C00F0917D000995FF91EF91BF91AF91D5
:100370009F918F917F916F915F914F913F912F91BD
:100380000F900FBE0F901F9018951F920F920FB6EF
:100390000F9211242F933F934F935F936F937F930B
:1003A0008F939F93AF93BF93EF93FF93E0917A0066
:1003B000F0917B000995FF91EF91BF91AF919F91D3
:1003C0008F917F916F915F914F913F912F910F90FE
:1003D0000FBE0F901F9018951F920F920FB60F929D
:1003E00011248F939F93AF93BF938091700090914E
:1003F0007100A0917200B09173000196A11DB11D12
:100400008093700090937100A0937200B09373007A
:10041000BF91AF919F918F910F900FBE0F901F9042
:1004200018951F920F920FB60F9211242F933F939E
:100430008F939F93AF93BF938091600090916100E1
:10044000A0916200B0916300892B8A2B8B2BC1F4A1
:1004500086B597B5A0E0B0E080936C0090936D00F6
:10046000A0936E00B0936F008EB58F7B8EBD1092FF
:10047000700010927100109272001092730054C0BC
:100480008091600090916100A0916200B091630042
:100490000197A105B105E9F426B537B58091700043
:1004A00090917100A0917200B0917300DC019927C6
:1004B0008827820F931FA11DB11D80936800909320
:1004C0006900A0936A00B0936B008EB580648EBD06
:1004D0002BC08091600090916100A0916200B0916A
:1004E00063000297A105B105F9F426B537B58091EF
:1004F000700090917100A0917200B0917300DC01C6
:1005000099278827820F931FA11DB11D8093640036
:1005100090936500A0936600B093670089B78F7DC4
:1005200089BF89B78B7F89BF8091600090916100FE
:10053000A0916200B09163000196A11DB11D80934E
:10054000600090936100A0936200B0936300BF913C
:10055000AF919F918F913F912F910F900FBE0F9070
:080560001F901895F894FFCFDD
:00000001FF
