:100000000C942A000C9447010C946E010C9474011A
:100010000C9447000C9447000C94CC020C944700BD
:100020000C9447000C94A7020C9459020C94800283
:100030000C9447000C9447000C9447000C94470024
:100040000C9447000C9447000C9447000C94470014
:100050000C94470011241FBECFE5D8E0DEBFCDBF12
:1000600010E0A0E6B0E0E8EFF6E002C005900D92E7
:10007000A036B107D9F720E0A0E6B0E001C01D929C
:10008000AE37B207E1F70E947A010C947A030C9420
:100090000000843008F072C0683008F06FC0413052
:1000A000A1F5813089F028F08230C9F0833011F158
:1000B00008952AB381E090E002C0880F991F6A95E5
:1000C000E2F7822B8ABB089527B381E090E002C05B
:1000D000880F991F6A95E2F7822B87BB089524B396
:1000E00081E090E002C0880F991F6A95E2F7822BA9
:1000F00084BB089521B381E090E002C0880F991F6E
:100100006A95E2F7822B81BB0895411137C0813097
:1001100091F028F08230D9F0833029F108952AB384
:1001200081E090E002C0880F991F6A95E2F7809500
:1001300082238ABB089527B381E090E002C0880F34
:10014000991F6A95E2F78095822387BB089524B3AF
:1001500081E090E002C0880F991F6A95E2F78095D0
:10016000822384BB089521B381E090E002C0880F10
:10017000991F6A95E2F78095822381BB08958430A8
:1001800008F072C0683008F06FC04130A1F58130CE
:1001900089F028F08230C9F0833011F108952BB333
:1001A00081E090E002C0880F991F6A95E2F7822BE8
:1001B0008BBB089528B381E090E002C0880F991F9F
:1001C0006A95E2F7822B88BB089525B381E090E021
:1001D00002C0880F991F6A95E2F7822B85BB0895AC
:1001E00022B381E090E002C0880F991F6A95E2F780
:1001F000822B82BB0895411137C0813091F028F0E5
:100200008230D9F0833029F108952BB381E090E05A
:1002100002C0880F991F6A95E2F7809582238BBBF5
:10022000089528B381E090E002C0880F991F6A9575
:10023000E2F78095822388BB089525B381E090E0A2
:1002400002C0880F991F6A95E2F78095822385BBCB
:10025000089522B381E090E002C0880F991F6A954B
:10026000E2F78095822382BB0895843078F4813050
:1002700041F028F0823039F0833039F008956BBBBB
:10028000089568BB089565BB089562BB08951F92E9
:100290000F920FB60F9211242F933F934F935F93BA
:1002A0006F937F938F939F93AF93BF93EF93FF933E
:1002B000E0917400F09175000995FF91EF91BF9165
:1002C000AF919F918F917F916F915F914F913F91EE
:1002D0002F910F900FBE0F901F901895E091760010
:1002E000F091770009950895E0917800F0917900F8
:1002F0000995089541E062E082E00E94490041E0F2
:1003000061E083E00E94490040E060E083E00E94F9
:10031000490041E063E080E00E9449000E946D03D3
:100320000E94EF010E941B022FEF83ED90E321500A
:1003300080409040E1F700C000000E947603C82F83
:100340000E940902C133F1F441E062E082E00E94C0
:10035000BF0041E063E080E00E94BF002FEF89E62C
:1003600098E1215080409040E1F700C0000040E05B
:1003700063E080E00E94BF000E94410281E00E9491
:100380003A02D2CFC03381F640E062E082E00E94C0
:10039000BF0041E063E080E00E94BF002FEF89E6EC
:1003A00098E1215080409040E1F700C0000040E01B
:1003B00063E080E00E94BF000E944D020E9447025D
:1003C00080E00E943A022FEF83ED90E321508040BD
:1003D0009040E1F700C000000E945302A5CF41E029
:1003E00065E081E00E94490040E066E081E00E9413
:1003F000490041E067E081E00E94490041E064E09B
:1004000081E00E94490081E78DB91EB881E08FB973
:100410000895CF93C82F40E064E081E00E94BF00C0
:10042000CFB9779BFECF41E064E081E00E94BF003E
:100430008FB1CF91089541E064E080E00E944900CF
:1004400041E065E080E00E94490041E066E080E034
:100450000E94490041E067E080E00E94490041E0DD
:1004600062E081E00E94490041E061E081E00E9499
:1004700049000895682F6295607F80E00E943501F1
:10048000089541E062E081E00E94BF00089541E0EC
:1004900061E081E00E94BF00089540E062E081E0F9
:1004A0000E94BF00089540E061E081E00E94BF002B
:1004B00008951F920F920FB60F9211242F933F931E
:1004C0004F935F936F937F938F939F93AF93BF935C
:1004D000EF93FF93E0917C00F0917D000995FF91EF
:1004E000EF91BF91AF919F918F917F916F915F91AC
:1004F0004F913F912F910F900FBE0F901F90189525
:100500001F920F920FB60F9211242F933F934F9388
:100510005F936F937F938F939F93AF93BF93EF936B
:10052000FF93E0917A00F0917B000995FF91EF91A4
:10053000BF91AF919F918F917F916F915F914F91FB
:100540003F912F910F900FBE0F901F9018951F9203
:100550000F920FB60F9211248F939F93AF93BF9377
:100560008091700090917100A0917200B091730021
:100570000196A11DB11D8093700090937100A0930E
:100580007200B0937300BF91AF919F918F910F90C4
:100590000FBE0F901F9018951F920F920FB60F92DB
:1005A00011242F933F938F939F93AF93BF93809189
:1005B000600090916100A0916200B0916300892B6E
:1005C0008A2B8B2BC1F486B597B5A0E0B0E0809361
:1005D0006C0090936D00A0936E00B0936F008EB589
:1005E0008F7B8EBD1092700010927100109272007D
:1005F0001092730054C08091600090916100A091AE
:100600006200B09163000197A105B105E9F426B538
:1006100037B58091700090917100A0917200B091F7
:100620007300DC0199278827820F931FA11DB11D3C
:100630008093680090936900A0936A00B0936B0068
:100640008EB580648EBD2BC080916000909161005A
:10065000A0916200B09163000297A105B105F9F481
:1006600026B537B58091700090917100A09172000D
:10067000B0917300DC0199278827820F931FA11D79
:10068000B11D8093640090936500A0936600B093C1
:10069000670089B78F7D89BF89B78B7F89BF8091BC
:1006A000600090916100A0916200B091630001969A
:1006B000A11DB11D8093600090936100A093620022
:1006C000B0936300BF91AF919F918F913F912F9114
:1006D0000F900FBE0F901F9018951BB888E18AB934
:1006E00086E880BD87E689B910BC08955F9BFECF80
:0806F0008CB10895F894FFCFCE
:00000001FF
